{
  "_format": "hh-sol-artifact-1",
  "contractName": "Randomness",
  "sourceName": "contracts/Randomness.sol",
  "abi": [
    {
      "inputs": [],
      "stateMutability": "nonpayable",
      "type": "constructor"
    },
    {
      "anonymous": false,
      "inputs": [
        {
          "indexed": true,
          "internalType": "uint32",
          "name": "result",
          "type": "uint32"
        }
      ],
      "name": "DiceLanded",
      "type": "event"
    },
    {
      "anonymous": false,
      "inputs": [],
      "name": "DiceRolled",
      "type": "event"
    },
    {
      "anonymous": false,
      "inputs": [
        {
          "indexed": true,
          "internalType": "address",
          "name": "previousOwner",
          "type": "address"
        },
        {
          "indexed": true,
          "internalType": "address",
          "name": "newOwner",
          "type": "address"
        }
      ],
      "name": "OwnershipTransferred",
      "type": "event"
    },
    {
      "inputs": [],
      "name": "LINK_token",
      "outputs": [
        {
          "internalType": "address",
          "name": "",
          "type": "address"
        }
      ],
      "stateMutability": "view",
      "type": "function"
    },
    {
      "inputs": [],
      "name": "VRF_Coordinator",
      "outputs": [
        {
          "internalType": "address",
          "name": "",
          "type": "address"
        }
      ],
      "stateMutability": "view",
      "type": "function"
    },
    {
      "inputs": [],
      "name": "chainlink",
      "outputs": [
        {
          "internalType": "contract IERC20",
          "name": "",
          "type": "address"
        }
      ],
      "stateMutability": "view",
      "type": "function"
    },
    {
      "inputs": [],
      "name": "fee",
      "outputs": [
        {
          "internalType": "uint256",
          "name": "",
          "type": "uint256"
        }
      ],
      "stateMutability": "view",
      "type": "function"
    },
    {
      "inputs": [],
      "name": "getBalance",
      "outputs": [
        {
          "internalType": "uint256",
          "name": "",
          "type": "uint256"
        }
      ],
      "stateMutability": "view",
      "type": "function"
    },
    {
      "inputs": [],
      "name": "getRandomNumber",
      "outputs": [
        {
          "internalType": "bytes32",
          "name": "requestId",
          "type": "bytes32"
        }
      ],
      "stateMutability": "nonpayable",
      "type": "function"
    },
    {
      "inputs": [],
      "name": "keyHash",
      "outputs": [
        {
          "internalType": "bytes32",
          "name": "",
          "type": "bytes32"
        }
      ],
      "stateMutability": "view",
      "type": "function"
    },
    {
      "inputs": [],
      "name": "owner",
      "outputs": [
        {
          "internalType": "address",
          "name": "",
          "type": "address"
        }
      ],
      "stateMutability": "view",
      "type": "function"
    },
    {
      "inputs": [
        {
          "internalType": "bytes32",
          "name": "requestId",
          "type": "bytes32"
        },
        {
          "internalType": "uint256",
          "name": "randomness",
          "type": "uint256"
        }
      ],
      "name": "rawFulfillRandomness",
      "outputs": [],
      "stateMutability": "nonpayable",
      "type": "function"
    },
    {
      "inputs": [],
      "name": "refundOwner",
      "outputs": [],
      "stateMutability": "payable",
      "type": "function"
    },
    {
      "inputs": [],
      "name": "renounceOwnership",
      "outputs": [],
      "stateMutability": "nonpayable",
      "type": "function"
    },
    {
      "inputs": [],
      "name": "tokenIdShifter",
      "outputs": [
        {
          "internalType": "uint32",
          "name": "",
          "type": "uint32"
        }
      ],
      "stateMutability": "view",
      "type": "function"
    },
    {
      "inputs": [
        {
          "internalType": "address",
          "name": "newOwner",
          "type": "address"
        }
      ],
      "name": "transferOwnership",
      "outputs": [],
      "stateMutability": "nonpayable",
      "type": "function"
    }
  ],
  "bytecode": "0x60c060405273b3dccb4cf7a26f6cf6b120cf5a73875b7bbc655b600360006101000a81548173ffffffffffffffffffffffffffffffffffffffff021916908373ffffffffffffffffffffffffffffffffffffffff1602179055507f2ed0feb3e7fd2022120aa84fab1945545a9f2ffc9076fd6156fa96eaff4c131160001b6004557301be23585060835e02b77ef475b0cc51aa1e0709600560006101000a81548173ffffffffffffffffffffffffffffffffffffffff021916908373ffffffffffffffffffffffffffffffffffffffff16021790555067016345785d8a00006006553480156100ed57600080fd5b50600360009054906101000a900473ffffffffffffffffffffffffffffffffffffffff16600560009054906101000a900473ffffffffffffffffffffffffffffffffffffffff168173ffffffffffffffffffffffffffffffffffffffff1660a08173ffffffffffffffffffffffffffffffffffffffff1660601b815250508073ffffffffffffffffffffffffffffffffffffffff1660808173ffffffffffffffffffffffffffffffffffffffff1660601b8152505050506101c06101b561022860201b60201c565b61023060201b60201c565b600560009054906101000a900473ffffffffffffffffffffffffffffffffffffffff16600260006101000a81548173ffffffffffffffffffffffffffffffffffffffff021916908373ffffffffffffffffffffffffffffffffffffffff1602179055506102f6565b600033905090565b6000600160009054906101000a900473ffffffffffffffffffffffffffffffffffffffff16905081600160006101000a81548173ffffffffffffffffffffffffffffffffffffffff021916908373ffffffffffffffffffffffffffffffffffffffff1602179055508173ffffffffffffffffffffffffffffffffffffffff168173ffffffffffffffffffffffffffffffffffffffff167f8be0079c531659141344cd1fd0a4f28419497f9722a3daafe3b4186f6b6457e060405160405180910390a35050565b60805160601c60a05160601c6113f561032f600039600081816105c70152610abf01526000818161070a0152610a8301526113f56000f3fe6080604052600436106100c25760003560e01c80638c47ddcc1161007f5780639c3feeb7116100595780639c3feeb714610213578063dbdff2c11461023e578063ddca3f4314610269578063f2fde38b14610294576100c2565b80638c47ddcc146101b55780638da5cb5b146101bf57806394985ddd146101ea576100c2565b806312065fe0146100c7578063297cf74c146100f257806329c16f4c1461011d578063592756a11461014857806361728f3914610173578063715018a61461019e575b600080fd5b3480156100d357600080fd5b506100dc6102bd565b6040516100e9919061113d565b60405180910390f35b3480156100fe57600080fd5b5061010761036f565b6040516101149190610f97565b60405180910390f35b34801561012957600080fd5b50610132610395565b60405161013f9190611158565b60405180910390f35b34801561015457600080fd5b5061015d6103ab565b60405161016a9190610f97565b60405180910390f35b34801561017f57600080fd5b506101886103d1565b6040516101959190611019565b60405180910390f35b3480156101aa57600080fd5b506101b36103d7565b005b6101bd61045f565b005b3480156101cb57600080fd5b506101d461059b565b6040516101e19190610f97565b60405180910390f35b3480156101f657600080fd5b50610211600480360381019061020c9190610d08565b6105c5565b005b34801561021f57600080fd5b50610228610661565b60405161023591906110a2565b60405180910390f35b34801561024a57600080fd5b50610253610687565b6040516102609190611019565b60405180910390f35b34801561027557600080fd5b5061027e610831565b60405161028b919061113d565b60405180910390f35b3480156102a057600080fd5b506102bb60048036038101906102b69190610cb6565b610837565b005b6000600260009054906101000a900473ffffffffffffffffffffffffffffffffffffffff1673ffffffffffffffffffffffffffffffffffffffff166370a08231306040518263ffffffff1660e01b815260040161031a9190610f97565b60206040518083038186803b15801561033257600080fd5b505afa158015610346573d6000803e3d6000fd5b505050506040513d601f19601f8201168201806040525081019061036a9190610d44565b905090565b600360009054906101000a900473ffffffffffffffffffffffffffffffffffffffff1681565b600160149054906101000a900463ffffffff1681565b600560009054906101000a900473ffffffffffffffffffffffffffffffffffffffff1681565b60045481565b6103df61092f565b73ffffffffffffffffffffffffffffffffffffffff166103fd61059b565b73ffffffffffffffffffffffffffffffffffffffff1614610453576040517f08c379a000000000000000000000000000000000000000000000000000000000815260040161044a906110fd565b60405180910390fd5b61045d6000610937565b565b61046761092f565b73ffffffffffffffffffffffffffffffffffffffff1661048561059b565b73ffffffffffffffffffffffffffffffffffffffff16146104db576040517f08c379a00000000000000000000000000000000000000000000000000000000081526004016104d2906110fd565b60405180910390fd5b600260009054906101000a900473ffffffffffffffffffffffffffffffffffffffff1673ffffffffffffffffffffffffffffffffffffffff1663a9059cbb61052161059b565b6105296102bd565b6040518363ffffffff1660e01b8152600401610546929190610fb2565b602060405180830381600087803b15801561056057600080fd5b505af1158015610574573d6000803e3d6000fd5b505050506040513d601f19601f820116820180604052508101906105989190610cdf565b50565b6000600160009054906101000a900473ffffffffffffffffffffffffffffffffffffffff16905090565b7f000000000000000000000000000000000000000000000000000000000000000073ffffffffffffffffffffffffffffffffffffffff163373ffffffffffffffffffffffffffffffffffffffff1614610653576040517f08c379a000000000000000000000000000000000000000000000000000000000815260040161064a9061111d565b60405180910390fd5b61065d82826109fd565b5050565b600260009054906101000a900473ffffffffffffffffffffffffffffffffffffffff1681565b600061069161092f565b73ffffffffffffffffffffffffffffffffffffffff166106af61059b565b73ffffffffffffffffffffffffffffffffffffffff1614610705576040517f08c379a00000000000000000000000000000000000000000000000000000000081526004016106fc906110fd565b60405180910390fd5b6006547f000000000000000000000000000000000000000000000000000000000000000073ffffffffffffffffffffffffffffffffffffffff166370a08231306040518263ffffffff1660e01b81526004016107619190610f97565b60206040518083038186803b15801561077957600080fd5b505afa15801561078d573d6000803e3d6000fd5b505050506040513d601f19601f820116820180604052508101906107b19190610d44565b10156107f2576040517f08c379a00000000000000000000000000000000000000000000000000000000081526004016107e9906110dd565b60405180910390fd5b7f48ed86bcf5a9db215d430a3d797d5fd900be09379a002b6f37891bd2aacbe5cf60405160405180910390a161082c600454600654610a7f565b905090565b60065481565b61083f61092f565b73ffffffffffffffffffffffffffffffffffffffff1661085d61059b565b73ffffffffffffffffffffffffffffffffffffffff16146108b3576040517f08c379a00000000000000000000000000000000000000000000000000000000081526004016108aa906110fd565b60405180910390fd5b600073ffffffffffffffffffffffffffffffffffffffff168173ffffffffffffffffffffffffffffffffffffffff161415610923576040517f08c379a000000000000000000000000000000000000000000000000000000000815260040161091a906110bd565b60405180910390fd5b61092c81610937565b50565b600033905090565b6000600160009054906101000a900473ffffffffffffffffffffffffffffffffffffffff16905081600160006101000a81548173ffffffffffffffffffffffffffffffffffffffff021916908373ffffffffffffffffffffffffffffffffffffffff1602179055508173ffffffffffffffffffffffffffffffffffffffff168173ffffffffffffffffffffffffffffffffffffffff167f8be0079c531659141344cd1fd0a4f28419497f9722a3daafe3b4186f6b6457e060405160405180910390a35050565b6001606482610a0c91906112c3565b610a1691906111a0565b600160146101000a81548163ffffffff021916908363ffffffff160217905550600160149054906101000a900463ffffffff1663ffffffff167f2bd582160d7ca70bab6d6431d305b4e34063eab1c51b172dccba45d6f2ad52e160405160405180910390a25050565b60007f000000000000000000000000000000000000000000000000000000000000000073ffffffffffffffffffffffffffffffffffffffff16634000aea07f000000000000000000000000000000000000000000000000000000000000000084866000604051602001610af3929190611034565b6040516020818303038152906040526040518463ffffffff1660e01b8152600401610b2093929190610fdb565b602060405180830381600087803b158015610b3a57600080fd5b505af1158015610b4e573d6000803e3d6000fd5b505050506040513d601f19601f82011682018060405250810190610b729190610cdf565b506000610b948460003060008089815260200190815260200160002054610bde565b9050600160008086815260200190815260200160002054610bb591906111a0565b60008086815260200190815260200160002081905550610bd58482610c1a565b91505092915050565b600084848484604051602001610bf7949392919061105d565b6040516020818303038152906040528051906020012060001c9050949350505050565b60008282604051602001610c2f929190610f6b565b60405160208183030381529060405280519060200120905092915050565b600081359050610c5c81611363565b92915050565b600081519050610c718161137a565b92915050565b600081359050610c8681611391565b92915050565b600081359050610c9b816113a8565b92915050565b600081519050610cb0816113a8565b92915050565b600060208284031215610cc857600080fd5b6000610cd684828501610c4d565b91505092915050565b600060208284031215610cf157600080fd5b6000610cff84828501610c62565b91505092915050565b60008060408385031215610d1b57600080fd5b6000610d2985828601610c77565b9250506020610d3a85828601610c8c565b9150509250929050565b600060208284031215610d5657600080fd5b6000610d6484828501610ca1565b91505092915050565b610d76816111f6565b82525050565b610d8581611214565b82525050565b610d9c610d9782611214565b6112af565b82525050565b6000610dad82611173565b610db7818561117e565b9350610dc781856020860161127c565b610dd081611352565b840191505092915050565b610de481611258565b82525050565b6000610df760268361118f565b91507f4f776e61626c653a206e6577206f776e657220697320746865207a65726f206160008301527f64647265737300000000000000000000000000000000000000000000000000006020830152604082019050919050565b6000610e5d602b8361118f565b91507f4e6f7420656e6f756768204c494e4b202d2066696c6c20636f6e74726163742060008301527f77697468206661756365740000000000000000000000000000000000000000006020830152604082019050919050565b6000610ec360208361118f565b91507f4f776e61626c653a2063616c6c6572206973206e6f7420746865206f776e65726000830152602082019050919050565b6000610f03601f8361118f565b91507f4f6e6c7920565246436f6f7264696e61746f722063616e2066756c66696c6c006000830152602082019050919050565b610f3f8161123e565b82525050565b610f56610f518261123e565b6112b9565b82525050565b610f6581611248565b82525050565b6000610f778285610d8b565b602082019150610f878284610f45565b6020820191508190509392505050565b6000602082019050610fac6000830184610d6d565b92915050565b6000604082019050610fc76000830185610d6d565b610fd46020830184610f36565b9392505050565b6000606082019050610ff06000830186610d6d565b610ffd6020830185610f36565b818103604083015261100f8184610da2565b9050949350505050565b600060208201905061102e6000830184610d7c565b92915050565b60006040820190506110496000830185610d7c565b6110566020830184610f36565b9392505050565b60006080820190506110726000830187610d7c565b61107f6020830186610f36565b61108c6040830185610d6d565b6110996060830184610f36565b95945050505050565b60006020820190506110b76000830184610ddb565b92915050565b600060208201905081810360008301526110d681610dea565b9050919050565b600060208201905081810360008301526110f681610e50565b9050919050565b6000602082019050818103600083015261111681610eb6565b9050919050565b6000602082019050818103600083015261113681610ef6565b9050919050565b60006020820190506111526000830184610f36565b92915050565b600060208201905061116d6000830184610f5c565b92915050565b600081519050919050565b600082825260208201905092915050565b600082825260208201905092915050565b60006111ab8261123e565b91506111b68361123e565b9250827fffffffffffffffffffffffffffffffffffffffffffffffffffffffffffffffff038211156111eb576111ea6112f4565b5b828201905092915050565b60006112018261121e565b9050919050565b60008115159050919050565b6000819050919050565b600073ffffffffffffffffffffffffffffffffffffffff82169050919050565b6000819050919050565b600063ffffffff82169050919050565b60006112638261126a565b9050919050565b60006112758261121e565b9050919050565b60005b8381101561129a57808201518184015260208101905061127f565b838111156112a9576000848401525b50505050565b6000819050919050565b6000819050919050565b60006112ce8261123e565b91506112d98361123e565b9250826112e9576112e8611323565b5b828206905092915050565b7f4e487b7100000000000000000000000000000000000000000000000000000000600052601160045260246000fd5b7f4e487b7100000000000000000000000000000000000000000000000000000000600052601260045260246000fd5b6000601f19601f8301169050919050565b61136c816111f6565b811461137757600080fd5b50565b61138381611208565b811461138e57600080fd5b50565b61139a81611214565b81146113a557600080fd5b50565b6113b18161123e565b81146113bc57600080fd5b5056fea2646970667358221220722ea9931a89a32ed9a73167698665453b989fc261459d0ccf728560e397088b64736f6c63430008000033",
  "linkReferences": {},
  "deployedLinkReferences": {}
}