{
  "_format": "hh-sol-artifact-1",
  "contractName": "DeepEye",
  "sourceName": "contracts/DeepEye.sol",
  "abi": [
    {
      "inputs": [
        {
          "internalType": "string",
          "name": "_name",
          "type": "string"
        },
        {
          "internalType": "string",
          "name": "_symbol",
          "type": "string"
        },
        {
          "internalType": "string",
          "name": "_initBaseURI",
          "type": "string"
        },
        {
          "internalType": "string",
          "name": "_initNotRevealedUri",
          "type": "string"
        }
      ],
      "stateMutability": "nonpayable",
      "type": "constructor"
    },
    {
      "anonymous": false,
      "inputs": [
        {
          "indexed": true,
          "internalType": "address",
          "name": "owner",
          "type": "address"
        },
        {
          "indexed": true,
          "internalType": "address",
          "name": "approved",
          "type": "address"
        },
        {
          "indexed": true,
          "internalType": "uint256",
          "name": "tokenId",
          "type": "uint256"
        }
      ],
      "name": "Approval",
      "type": "event"
    },
    {
      "anonymous": false,
      "inputs": [
        {
          "indexed": true,
          "internalType": "address",
          "name": "owner",
          "type": "address"
        },
        {
          "indexed": true,
          "internalType": "address",
          "name": "operator",
          "type": "address"
        },
        {
          "indexed": false,
          "internalType": "bool",
          "name": "approved",
          "type": "bool"
        }
      ],
      "name": "ApprovalForAll",
      "type": "event"
    },
    {
      "anonymous": false,
      "inputs": [
        {
          "indexed": true,
          "internalType": "uint32",
          "name": "result",
          "type": "uint32"
        }
      ],
      "name": "DiceLanded",
      "type": "event"
    },
    {
      "anonymous": false,
      "inputs": [],
      "name": "DiceRolled",
      "type": "event"
    },
    {
      "anonymous": false,
      "inputs": [
        {
          "indexed": true,
          "internalType": "address",
          "name": "previousOwner",
          "type": "address"
        },
        {
          "indexed": true,
          "internalType": "address",
          "name": "newOwner",
          "type": "address"
        }
      ],
      "name": "OwnershipTransferred",
      "type": "event"
    },
    {
      "anonymous": false,
      "inputs": [
        {
          "indexed": true,
          "internalType": "address",
          "name": "from",
          "type": "address"
        },
        {
          "indexed": true,
          "internalType": "address",
          "name": "to",
          "type": "address"
        },
        {
          "indexed": true,
          "internalType": "uint256",
          "name": "tokenId",
          "type": "uint256"
        }
      ],
      "name": "Transfer",
      "type": "event"
    },
    {
      "inputs": [],
      "name": "LINK_token",
      "outputs": [
        {
          "internalType": "address",
          "name": "",
          "type": "address"
        }
      ],
      "stateMutability": "view",
      "type": "function"
    },
    {
      "inputs": [],
      "name": "VRF_Coordinator",
      "outputs": [
        {
          "internalType": "address",
          "name": "",
          "type": "address"
        }
      ],
      "stateMutability": "view",
      "type": "function"
    },
    {
      "inputs": [
        {
          "internalType": "address",
          "name": "to",
          "type": "address"
        },
        {
          "internalType": "uint256",
          "name": "tokenId",
          "type": "uint256"
        }
      ],
      "name": "approve",
      "outputs": [],
      "stateMutability": "nonpayable",
      "type": "function"
    },
    {
      "inputs": [
        {
          "internalType": "address",
          "name": "owner",
          "type": "address"
        }
      ],
      "name": "balanceOf",
      "outputs": [
        {
          "internalType": "uint256",
          "name": "",
          "type": "uint256"
        }
      ],
      "stateMutability": "view",
      "type": "function"
    },
    {
      "inputs": [],
      "name": "baseExtension",
      "outputs": [
        {
          "internalType": "string",
          "name": "",
          "type": "string"
        }
      ],
      "stateMutability": "view",
      "type": "function"
    },
    {
      "inputs": [],
      "name": "chainlink",
      "outputs": [
        {
          "internalType": "contract IERC20",
          "name": "",
          "type": "address"
        }
      ],
      "stateMutability": "view",
      "type": "function"
    },
    {
      "inputs": [],
      "name": "cost",
      "outputs": [
        {
          "internalType": "uint256",
          "name": "",
          "type": "uint256"
        }
      ],
      "stateMutability": "view",
      "type": "function"
    },
    {
      "inputs": [],
      "name": "fee",
      "outputs": [
        {
          "internalType": "uint256",
          "name": "",
          "type": "uint256"
        }
      ],
      "stateMutability": "view",
      "type": "function"
    },
    {
      "inputs": [
        {
          "internalType": "uint256",
          "name": "tokenId",
          "type": "uint256"
        }
      ],
      "name": "getApproved",
      "outputs": [
        {
          "internalType": "address",
          "name": "",
          "type": "address"
        }
      ],
      "stateMutability": "view",
      "type": "function"
    },
    {
      "inputs": [],
      "name": "getBalance",
      "outputs": [
        {
          "internalType": "uint256",
          "name": "",
          "type": "uint256"
        }
      ],
      "stateMutability": "view",
      "type": "function"
    },
    {
      "inputs": [],
      "name": "getRandomNumber",
      "outputs": [
        {
          "internalType": "bytes32",
          "name": "requestId",
          "type": "bytes32"
        }
      ],
      "stateMutability": "nonpayable",
      "type": "function"
    },
    {
      "inputs": [
        {
          "internalType": "address",
          "name": "owner",
          "type": "address"
        },
        {
          "internalType": "address",
          "name": "operator",
          "type": "address"
        }
      ],
      "name": "isApprovedForAll",
      "outputs": [
        {
          "internalType": "bool",
          "name": "",
          "type": "bool"
        }
      ],
      "stateMutability": "view",
      "type": "function"
    },
    {
      "inputs": [],
      "name": "keyHash",
      "outputs": [
        {
          "internalType": "bytes32",
          "name": "",
          "type": "bytes32"
        }
      ],
      "stateMutability": "view",
      "type": "function"
    },
    {
      "inputs": [],
      "name": "maxMintAmount",
      "outputs": [
        {
          "internalType": "uint256",
          "name": "",
          "type": "uint256"
        }
      ],
      "stateMutability": "view",
      "type": "function"
    },
    {
      "inputs": [],
      "name": "maxSupply",
      "outputs": [
        {
          "internalType": "uint256",
          "name": "",
          "type": "uint256"
        }
      ],
      "stateMutability": "view",
      "type": "function"
    },
    {
      "inputs": [
        {
          "internalType": "uint256",
          "name": "_mintAmount",
          "type": "uint256"
        }
      ],
      "name": "mint",
      "outputs": [],
      "stateMutability": "payable",
      "type": "function"
    },
    {
      "inputs": [],
      "name": "name",
      "outputs": [
        {
          "internalType": "string",
          "name": "",
          "type": "string"
        }
      ],
      "stateMutability": "view",
      "type": "function"
    },
    {
      "inputs": [],
      "name": "notRevealedUri",
      "outputs": [
        {
          "internalType": "string",
          "name": "",
          "type": "string"
        }
      ],
      "stateMutability": "view",
      "type": "function"
    },
    {
      "inputs": [],
      "name": "owner",
      "outputs": [
        {
          "internalType": "address",
          "name": "",
          "type": "address"
        }
      ],
      "stateMutability": "view",
      "type": "function"
    },
    {
      "inputs": [
        {
          "internalType": "uint256",
          "name": "tokenId",
          "type": "uint256"
        }
      ],
      "name": "ownerOf",
      "outputs": [
        {
          "internalType": "address",
          "name": "",
          "type": "address"
        }
      ],
      "stateMutability": "view",
      "type": "function"
    },
    {
      "inputs": [
        {
          "internalType": "bool",
          "name": "_state",
          "type": "bool"
        }
      ],
      "name": "pause",
      "outputs": [],
      "stateMutability": "nonpayable",
      "type": "function"
    },
    {
      "inputs": [],
      "name": "paused",
      "outputs": [
        {
          "internalType": "bool",
          "name": "",
          "type": "bool"
        }
      ],
      "stateMutability": "view",
      "type": "function"
    },
    {
      "inputs": [
        {
          "internalType": "bytes32",
          "name": "requestId",
          "type": "bytes32"
        },
        {
          "internalType": "uint256",
          "name": "randomness",
          "type": "uint256"
        }
      ],
      "name": "rawFulfillRandomness",
      "outputs": [],
      "stateMutability": "nonpayable",
      "type": "function"
    },
    {
      "inputs": [],
      "name": "refundOwner",
      "outputs": [],
      "stateMutability": "payable",
      "type": "function"
    },
    {
      "inputs": [],
      "name": "renounceOwnership",
      "outputs": [],
      "stateMutability": "nonpayable",
      "type": "function"
    },
    {
      "inputs": [],
      "name": "reveal",
      "outputs": [],
      "stateMutability": "nonpayable",
      "type": "function"
    },
    {
      "inputs": [],
      "name": "revealed",
      "outputs": [
        {
          "internalType": "bool",
          "name": "",
          "type": "bool"
        }
      ],
      "stateMutability": "view",
      "type": "function"
    },
    {
      "inputs": [
        {
          "internalType": "address",
          "name": "from",
          "type": "address"
        },
        {
          "internalType": "address",
          "name": "to",
          "type": "address"
        },
        {
          "internalType": "uint256",
          "name": "tokenId",
          "type": "uint256"
        }
      ],
      "name": "safeTransferFrom",
      "outputs": [],
      "stateMutability": "nonpayable",
      "type": "function"
    },
    {
      "inputs": [
        {
          "internalType": "address",
          "name": "from",
          "type": "address"
        },
        {
          "internalType": "address",
          "name": "to",
          "type": "address"
        },
        {
          "internalType": "uint256",
          "name": "tokenId",
          "type": "uint256"
        },
        {
          "internalType": "bytes",
          "name": "_data",
          "type": "bytes"
        }
      ],
      "name": "safeTransferFrom",
      "outputs": [],
      "stateMutability": "nonpayable",
      "type": "function"
    },
    {
      "inputs": [
        {
          "internalType": "address",
          "name": "operator",
          "type": "address"
        },
        {
          "internalType": "bool",
          "name": "approved",
          "type": "bool"
        }
      ],
      "name": "setApprovalForAll",
      "outputs": [],
      "stateMutability": "nonpayable",
      "type": "function"
    },
    {
      "inputs": [
        {
          "internalType": "string",
          "name": "_newBaseExtension",
          "type": "string"
        }
      ],
      "name": "setBaseExtension",
      "outputs": [],
      "stateMutability": "nonpayable",
      "type": "function"
    },
    {
      "inputs": [
        {
          "internalType": "string",
          "name": "_newBaseURI",
          "type": "string"
        }
      ],
      "name": "setBaseURI",
      "outputs": [],
      "stateMutability": "nonpayable",
      "type": "function"
    },
    {
      "inputs": [
        {
          "internalType": "uint256",
          "name": "_newCost",
          "type": "uint256"
        }
      ],
      "name": "setCost",
      "outputs": [],
      "stateMutability": "nonpayable",
      "type": "function"
    },
    {
      "inputs": [
        {
          "internalType": "string",
          "name": "_notRevealedURI",
          "type": "string"
        }
      ],
      "name": "setNotRevealedURI",
      "outputs": [],
      "stateMutability": "nonpayable",
      "type": "function"
    },
    {
      "inputs": [
        {
          "internalType": "uint256",
          "name": "_newmaxMintAmount",
          "type": "uint256"
        }
      ],
      "name": "setmaxMintAmount",
      "outputs": [],
      "stateMutability": "nonpayable",
      "type": "function"
    },
    {
      "inputs": [
        {
          "internalType": "bytes4",
          "name": "interfaceId",
          "type": "bytes4"
        }
      ],
      "name": "supportsInterface",
      "outputs": [
        {
          "internalType": "bool",
          "name": "",
          "type": "bool"
        }
      ],
      "stateMutability": "view",
      "type": "function"
    },
    {
      "inputs": [],
      "name": "symbol",
      "outputs": [
        {
          "internalType": "string",
          "name": "",
          "type": "string"
        }
      ],
      "stateMutability": "view",
      "type": "function"
    },
    {
      "inputs": [
        {
          "internalType": "uint256",
          "name": "index",
          "type": "uint256"
        }
      ],
      "name": "tokenByIndex",
      "outputs": [
        {
          "internalType": "uint256",
          "name": "",
          "type": "uint256"
        }
      ],
      "stateMutability": "view",
      "type": "function"
    },
    {
      "inputs": [],
      "name": "tokenIdShifter",
      "outputs": [
        {
          "internalType": "uint32",
          "name": "",
          "type": "uint32"
        }
      ],
      "stateMutability": "view",
      "type": "function"
    },
    {
      "inputs": [
        {
          "internalType": "address",
          "name": "owner",
          "type": "address"
        },
        {
          "internalType": "uint256",
          "name": "index",
          "type": "uint256"
        }
      ],
      "name": "tokenOfOwnerByIndex",
      "outputs": [
        {
          "internalType": "uint256",
          "name": "",
          "type": "uint256"
        }
      ],
      "stateMutability": "view",
      "type": "function"
    },
    {
      "inputs": [
        {
          "internalType": "uint256",
          "name": "tokenId",
          "type": "uint256"
        }
      ],
      "name": "tokenURI",
      "outputs": [
        {
          "internalType": "string",
          "name": "",
          "type": "string"
        }
      ],
      "stateMutability": "view",
      "type": "function"
    },
    {
      "inputs": [],
      "name": "totalSupply",
      "outputs": [
        {
          "internalType": "uint256",
          "name": "",
          "type": "uint256"
        }
      ],
      "stateMutability": "view",
      "type": "function"
    },
    {
      "inputs": [
        {
          "internalType": "address",
          "name": "from",
          "type": "address"
        },
        {
          "internalType": "address",
          "name": "to",
          "type": "address"
        },
        {
          "internalType": "uint256",
          "name": "tokenId",
          "type": "uint256"
        }
      ],
      "name": "transferFrom",
      "outputs": [],
      "stateMutability": "nonpayable",
      "type": "function"
    },
    {
      "inputs": [
        {
          "internalType": "address",
          "name": "newOwner",
          "type": "address"
        }
      ],
      "name": "transferOwnership",
      "outputs": [],
      "stateMutability": "nonpayable",
      "type": "function"
    },
    {
      "inputs": [],
      "name": "withdraw",
      "outputs": [],
      "stateMutability": "payable",
      "type": "function"
    }
  ],
  "bytecode": "0x60c060405273b3dccb4cf7a26f6cf6b120cf5a73875b7bbc655b600d60006101000a81548173ffffffffffffffffffffffffffffffffffffffff021916908373ffffffffffffffffffffffffffffffffffffffff1602179055507f2ed0feb3e7fd2022120aa84fab1945545a9f2ffc9076fd6156fa96eaff4c131160001b600e557301be23585060835e02b77ef475b0cc51aa1e0709600f60006101000a81548173ffffffffffffffffffffffffffffffffffffffff021916908373ffffffffffffffffffffffffffffffffffffffff16021790555067016345785d8a00006010556040518060400160405280600581526020017f2e6a736f6e000000000000000000000000000000000000000000000000000000815250601290805190602001906200012e92919062000596565b5066b1a2bc2ec50000601355606460145560036015556000601660006101000a81548160ff0219169083151502179055506000601660016101000a81548160ff0219169083151502179055503480156200018757600080fd5b5060405162005750380380620057508339818101604052810190620001ad9190620006b8565b8383600d60009054906101000a900473ffffffffffffffffffffffffffffffffffffffff16600f60009054906101000a900473ffffffffffffffffffffffffffffffffffffffff168173ffffffffffffffffffffffffffffffffffffffff1660a08173ffffffffffffffffffffffffffffffffffffffff1660601b815250508073ffffffffffffffffffffffffffffffffffffffff1660808173ffffffffffffffffffffffffffffffffffffffff1660601b81525050505081600190805190602001906200027d92919062000596565b5080600290805190602001906200029692919062000596565b505050620002b9620002ad6200034860201b60201c565b6200035060201b60201c565b600f60009054906101000a900473ffffffffffffffffffffffffffffffffffffffff16600c60006101000a81548173ffffffffffffffffffffffffffffffffffffffff021916908373ffffffffffffffffffffffffffffffffffffffff1602179055506200032d826200041660201b60201c565b6200033e81620004c160201b60201c565b505050506200092e565b600033905090565b6000600b60009054906101000a900473ffffffffffffffffffffffffffffffffffffffff16905081600b60006101000a81548173ffffffffffffffffffffffffffffffffffffffff021916908373ffffffffffffffffffffffffffffffffffffffff1602179055508173ffffffffffffffffffffffffffffffffffffffff168173ffffffffffffffffffffffffffffffffffffffff167f8be0079c531659141344cd1fd0a4f28419497f9722a3daafe3b4186f6b6457e060405160405180910390a35050565b620004266200034860201b60201c565b73ffffffffffffffffffffffffffffffffffffffff166200044c6200056c60201b60201c565b73ffffffffffffffffffffffffffffffffffffffff1614620004a5576040517f08c379a00000000000000000000000000000000000000000000000000000000081526004016200049c90620007ca565b60405180910390fd5b8060119080519060200190620004bd92919062000596565b5050565b620004d16200034860201b60201c565b73ffffffffffffffffffffffffffffffffffffffff16620004f76200056c60201b60201c565b73ffffffffffffffffffffffffffffffffffffffff161462000550576040517f08c379a00000000000000000000000000000000000000000000000000000000081526004016200054790620007ca565b60405180910390fd5b80601790805190602001906200056892919062000596565b5050565b6000600b60009054906101000a900473ffffffffffffffffffffffffffffffffffffffff16905090565b828054620005a4906200089a565b90600052602060002090601f016020900481019282620005c8576000855562000614565b82601f10620005e357805160ff191683800117855562000614565b8280016001018555821562000614579182015b8281111562000613578251825591602001919060010190620005f6565b5b50905062000623919062000627565b5090565b5b808211156200064257600081600090555060010162000628565b5090565b60006200065d620006578462000820565b620007ec565b9050828152602081018484840111156200067657600080fd5b6200068384828562000864565b509392505050565b600082601f8301126200069d57600080fd5b8151620006af84826020860162000646565b91505092915050565b60008060008060808587031215620006cf57600080fd5b600085015167ffffffffffffffff811115620006ea57600080fd5b620006f8878288016200068b565b945050602085015167ffffffffffffffff8111156200071657600080fd5b62000724878288016200068b565b935050604085015167ffffffffffffffff8111156200074257600080fd5b62000750878288016200068b565b925050606085015167ffffffffffffffff8111156200076e57600080fd5b6200077c878288016200068b565b91505092959194509250565b60006200079760208362000853565b91507f4f776e61626c653a2063616c6c6572206973206e6f7420746865206f776e65726000830152602082019050919050565b60006020820190508181036000830152620007e58162000788565b9050919050565b6000604051905081810181811067ffffffffffffffff82111715620008165762000815620008ff565b5b8060405250919050565b600067ffffffffffffffff8211156200083e576200083d620008ff565b5b601f19601f8301169050602081019050919050565b600082825260208201905092915050565b60005b838110156200088457808201518184015260208101905062000867565b8381111562000894576000848401525b50505050565b60006002820490506001821680620008b357607f821691505b60208210811415620008ca57620008c9620008d0565b5b50919050565b7f4e487b7100000000000000000000000000000000000000000000000000000000600052602260045260246000fd5b7f4e487b7100000000000000000000000000000000000000000000000000000000600052604160045260246000fd5b60805160601c60a05160601c614de862000968600039600081816116e00152612b29015260008181611ee20152612aed0152614de86000f3fe6080604052600436106102725760003560e01c806361728f391161014f578063a22cb465116100c1578063da3ef23f1161007a578063da3ef23f146108f5578063dbdff2c11461091e578063ddca3f4314610949578063e985e9c514610974578063f2c4ce1e146109b1578063f2fde38b146109da57610272565b8063a22cb465146107f9578063a475b5dd14610822578063b88d4fde14610839578063c668286214610862578063c87b56dd1461088d578063d5abeb01146108ca57610272565b80638c47ddcc116101135780638c47ddcc146107295780638da5cb5b1461073357806394985ddd1461075e57806395d89b41146107875780639c3feeb7146107b2578063a0712d68146107dd57610272565b806361728f39146106445780636352211e1461066f57806370a08231146106ac578063715018a6146106e95780637f00c7a61461070057610272565b8063297cf74c116101e857806344a0d68a116101ac57806344a0d68a146105345780634f6ccce71461055d578063518302271461059a57806355f804b3146105c5578063592756a1146105ee5780635c975abb1461061957610272565b8063297cf74c1461046e57806329c16f4c146104995780632f745c59146104c45780633ccfd60b1461050157806342842e0e1461050b57610272565b8063095ea7b31161023a578063095ea7b31461037057806312065fe01461039957806313faede6146103c457806318160ddd146103ef578063239c70ae1461041a57806323b872dd1461044557610272565b806301ffc9a71461027757806302329a29146102b457806306fdde03146102dd578063081812fc14610308578063081c8c4414610345575b600080fd5b34801561028357600080fd5b5061029e600480360381019061029991906139d5565b610a03565b6040516102ab919061451e565b60405180910390f35b3480156102c057600080fd5b506102db60048036038101906102d69190613947565b610a7d565b005b3480156102e957600080fd5b506102f2610b16565b6040516102ff91906145dd565b60405180910390f35b34801561031457600080fd5b5061032f600480360381019061032a9190613a68565b610ba8565b60405161033c9190614450565b60405180910390f35b34801561035157600080fd5b5061035a610c2d565b60405161036791906145dd565b60405180910390f35b34801561037c57600080fd5b506103976004803603810190610392919061390b565b610cbb565b005b3480156103a557600080fd5b506103ae610dd3565b6040516103bb919061487f565b60405180910390f35b3480156103d057600080fd5b506103d9610e85565b6040516103e6919061487f565b60405180910390f35b3480156103fb57600080fd5b50610404610e8b565b604051610411919061487f565b60405180910390f35b34801561042657600080fd5b5061042f610e98565b60405161043c919061487f565b60405180910390f35b34801561045157600080fd5b5061046c60048036038101906104679190613805565b610e9e565b005b34801561047a57600080fd5b50610483610efe565b6040516104909190614450565b60405180910390f35b3480156104a557600080fd5b506104ae610f24565b6040516104bb919061489a565b60405180910390f35b3480156104d057600080fd5b506104eb60048036038101906104e6919061390b565b610f3a565b6040516104f8919061487f565b60405180910390f35b610509610fdf565b005b34801561051757600080fd5b50610532600480360381019061052d9190613805565b6110db565b005b34801561054057600080fd5b5061055b60048036038101906105569190613a68565b6110fb565b005b34801561056957600080fd5b50610584600480360381019061057f9190613a68565b611181565b604051610591919061487f565b60405180910390f35b3480156105a657600080fd5b506105af611218565b6040516105bc919061451e565b60405180910390f35b3480156105d157600080fd5b506105ec60048036038101906105e79190613a27565b61122b565b005b3480156105fa57600080fd5b506106036112c1565b6040516106109190614450565b60405180910390f35b34801561062557600080fd5b5061062e6112e7565b60405161063b919061451e565b60405180910390f35b34801561065057600080fd5b506106596112fa565b6040516106669190614539565b60405180910390f35b34801561067b57600080fd5b5061069660048036038101906106919190613a68565b611300565b6040516106a39190614450565b60405180910390f35b3480156106b857600080fd5b506106d360048036038101906106ce91906137a0565b6113b2565b6040516106e0919061487f565b60405180910390f35b3480156106f557600080fd5b506106fe61146a565b005b34801561070c57600080fd5b5061072760048036038101906107229190613a68565b6114f2565b005b610731611578565b005b34801561073f57600080fd5b506107486116b4565b6040516107559190614450565b60405180910390f35b34801561076a57600080fd5b5061078560048036038101906107809190613999565b6116de565b005b34801561079357600080fd5b5061079c61177a565b6040516107a991906145dd565b60405180910390f35b3480156107be57600080fd5b506107c761180c565b6040516107d491906145c2565b60405180910390f35b6107f760048036038101906107f29190613a68565b611832565b005b34801561080557600080fd5b50610820600480360381019061081b91906138cf565b61191e565b005b34801561082e57600080fd5b50610837611a9f565b005b34801561084557600080fd5b50610860600480360381019061085b9190613854565b611b38565b005b34801561086e57600080fd5b50610877611b9a565b60405161088491906145dd565b60405180910390f35b34801561089957600080fd5b506108b460048036038101906108af9190613a68565b611c28565b6040516108c191906145dd565b60405180910390f35b3480156108d657600080fd5b506108df611dc3565b6040516108ec919061487f565b60405180910390f35b34801561090157600080fd5b5061091c60048036038101906109179190613a27565b611dc9565b005b34801561092a57600080fd5b50610933611e5f565b6040516109409190614539565b60405180910390f35b34801561095557600080fd5b5061095e612009565b60405161096b919061487f565b60405180910390f35b34801561098057600080fd5b5061099b600480360381019061099691906137c9565b61200f565b6040516109a8919061451e565b60405180910390f35b3480156109bd57600080fd5b506109d860048036038101906109d39190613a27565b6120a3565b005b3480156109e657600080fd5b50610a0160048036038101906109fc91906137a0565b612139565b005b60007f780e9d63000000000000000000000000000000000000000000000000000000007bffffffffffffffffffffffffffffffffffffffffffffffffffffffff1916827bffffffffffffffffffffffffffffffffffffffffffffffffffffffff19161480610a765750610a7582612231565b5b9050919050565b610a85612313565b73ffffffffffffffffffffffffffffffffffffffff16610aa36116b4565b73ffffffffffffffffffffffffffffffffffffffff1614610af9576040517f08c379a0000000000000000000000000000000000000000000000000000000008152600401610af0906147bf565b60405180910390fd5b80601660006101000a81548160ff02191690831515021790555050565b606060018054610b2590614bb2565b80601f0160208091040260200160405190810160405280929190818152602001828054610b5190614bb2565b8015610b9e5780601f10610b7357610100808354040283529160200191610b9e565b820191906000526020600020905b815481529060010190602001808311610b8157829003601f168201915b5050505050905090565b6000610bb38261231b565b610bf2576040517f08c379a0000000000000000000000000000000000000000000000000000000008152600401610be99061479f565b60405180910390fd5b6005600083815260200190815260200160002060009054906101000a900473ffffffffffffffffffffffffffffffffffffffff169050919050565b60178054610c3a90614bb2565b80601f0160208091040260200160405190810160405280929190818152602001828054610c6690614bb2565b8015610cb35780601f10610c8857610100808354040283529160200191610cb3565b820191906000526020600020905b815481529060010190602001808311610c9657829003601f168201915b505050505081565b6000610cc682611300565b90508073ffffffffffffffffffffffffffffffffffffffff168373ffffffffffffffffffffffffffffffffffffffff161415610d37576040517f08c379a0000000000000000000000000000000000000000000000000000000008152600401610d2e9061481f565b60405180910390fd5b8073ffffffffffffffffffffffffffffffffffffffff16610d56612313565b73ffffffffffffffffffffffffffffffffffffffff161480610d855750610d8481610d7f612313565b61200f565b5b610dc4576040517f08c379a0000000000000000000000000000000000000000000000000000000008152600401610dbb9061471f565b60405180910390fd5b610dce8383612387565b505050565b6000600c60009054906101000a900473ffffffffffffffffffffffffffffffffffffffff1673ffffffffffffffffffffffffffffffffffffffff166370a08231306040518263ffffffff1660e01b8152600401610e309190614450565b60206040518083038186803b158015610e4857600080fd5b505afa158015610e5c573d6000803e3d6000fd5b505050506040513d601f19601f82011682018060405250810190610e809190613a91565b905090565b60135481565b6000600980549050905090565b60155481565b610eaf610ea9612313565b82612440565b610eee576040517f08c379a0000000000000000000000000000000000000000000000000000000008152600401610ee59061483f565b60405180910390fd5b610ef983838361251e565b505050565b600d60009054906101000a900473ffffffffffffffffffffffffffffffffffffffff1681565b600b60149054906101000a900463ffffffff1681565b6000610f45836113b2565b8210610f86576040517f08c379a0000000000000000000000000000000000000000000000000000000008152600401610f7d906145ff565b60405180910390fd5b600760008473ffffffffffffffffffffffffffffffffffffffff1673ffffffffffffffffffffffffffffffffffffffff168152602001908152602001600020600083815260200190815260200160002054905092915050565b610fe7612313565b73ffffffffffffffffffffffffffffffffffffffff166110056116b4565b73ffffffffffffffffffffffffffffffffffffffff161461105b576040517f08c379a0000000000000000000000000000000000000000000000000000000008152600401611052906147bf565b60405180910390fd5b60006110656116b4565b73ffffffffffffffffffffffffffffffffffffffff16476040516110889061443b565b60006040518083038185875af1925050503d80600081146110c5576040519150601f19603f3d011682016040523d82523d6000602084013e6110ca565b606091505b50509050806110d857600080fd5b50565b6110f683838360405180602001604052806000815250611b38565b505050565b611103612313565b73ffffffffffffffffffffffffffffffffffffffff166111216116b4565b73ffffffffffffffffffffffffffffffffffffffff1614611177576040517f08c379a000000000000000000000000000000000000000000000000000000000815260040161116e906147bf565b60405180910390fd5b8060138190555050565b600061118b610e8b565b82106111cc576040517f08c379a00000000000000000000000000000000000000000000000000000000081526004016111c39061485f565b60405180910390fd5b60098281548110611206577f4e487b7100000000000000000000000000000000000000000000000000000000600052603260045260246000fd5b90600052602060002001549050919050565b601660019054906101000a900460ff1681565b611233612313565b73ffffffffffffffffffffffffffffffffffffffff166112516116b4565b73ffffffffffffffffffffffffffffffffffffffff16146112a7576040517f08c379a000000000000000000000000000000000000000000000000000000000815260040161129e906147bf565b60405180910390fd5b80601190805190602001906112bd929190613585565b5050565b600f60009054906101000a900473ffffffffffffffffffffffffffffffffffffffff1681565b601660009054906101000a900460ff1681565b600e5481565b6000806003600084815260200190815260200160002060009054906101000a900473ffffffffffffffffffffffffffffffffffffffff169050600073ffffffffffffffffffffffffffffffffffffffff168173ffffffffffffffffffffffffffffffffffffffff1614156113a9576040517f08c379a00000000000000000000000000000000000000000000000000000000081526004016113a09061475f565b60405180910390fd5b80915050919050565b60008073ffffffffffffffffffffffffffffffffffffffff168273ffffffffffffffffffffffffffffffffffffffff161415611423576040517f08c379a000000000000000000000000000000000000000000000000000000000815260040161141a9061473f565b60405180910390fd5b600460008373ffffffffffffffffffffffffffffffffffffffff1673ffffffffffffffffffffffffffffffffffffffff168152602001908152602001600020549050919050565b611472612313565b73ffffffffffffffffffffffffffffffffffffffff166114906116b4565b73ffffffffffffffffffffffffffffffffffffffff16146114e6576040517f08c379a00000000000000000000000000000000000000000000000000000000081526004016114dd906147bf565b60405180910390fd5b6114f0600061277a565b565b6114fa612313565b73ffffffffffffffffffffffffffffffffffffffff166115186116b4565b73ffffffffffffffffffffffffffffffffffffffff161461156e576040517f08c379a0000000000000000000000000000000000000000000000000000000008152600401611565906147bf565b60405180910390fd5b8060158190555050565b611580612313565b73ffffffffffffffffffffffffffffffffffffffff1661159e6116b4565b73ffffffffffffffffffffffffffffffffffffffff16146115f4576040517f08c379a00000000000000000000000000000000000000000000000000000000081526004016115eb906147bf565b60405180910390fd5b600c60009054906101000a900473ffffffffffffffffffffffffffffffffffffffff1673ffffffffffffffffffffffffffffffffffffffff1663a9059cbb61163a6116b4565b611642610dd3565b6040518363ffffffff1660e01b815260040161165f9291906144b7565b602060405180830381600087803b15801561167957600080fd5b505af115801561168d573d6000803e3d6000fd5b505050506040513d601f19601f820116820180604052508101906116b19190613970565b50565b6000600b60009054906101000a900473ffffffffffffffffffffffffffffffffffffffff16905090565b7f000000000000000000000000000000000000000000000000000000000000000073ffffffffffffffffffffffffffffffffffffffff163373ffffffffffffffffffffffffffffffffffffffff161461176c576040517f08c379a0000000000000000000000000000000000000000000000000000000008152600401611763906147ff565b60405180910390fd5b6117768282612840565b5050565b60606002805461178990614bb2565b80601f01602080910402602001604051908101604052809291908181526020018280546117b590614bb2565b80156118025780601f106117d757610100808354040283529160200191611802565b820191906000526020600020905b8154815290600101906020018083116117e557829003601f168201915b5050505050905090565b600c60009054906101000a900473ffffffffffffffffffffffffffffffffffffffff1681565b600061183c610e8b565b9050601660009054906101000a900460ff161561185857600080fd5b6000821161186557600080fd5b60155482111561187457600080fd5b601454828261188391906149a9565b111561188e57600080fd5b6118966116b4565b73ffffffffffffffffffffffffffffffffffffffff163373ffffffffffffffffffffffffffffffffffffffff16146118e357816013546118d69190614a30565b3410156118e257600080fd5b5b6000600190505b8281116119195761190633828461190191906149a9565b6128c2565b808061191190614be4565b9150506118ea565b505050565b611926612313565b73ffffffffffffffffffffffffffffffffffffffff168273ffffffffffffffffffffffffffffffffffffffff161415611994576040517f08c379a000000000000000000000000000000000000000000000000000000000815260040161198b9061469f565b60405180910390fd5b80600660006119a1612313565b73ffffffffffffffffffffffffffffffffffffffff1673ffffffffffffffffffffffffffffffffffffffff16815260200190815260200160002060008473ffffffffffffffffffffffffffffffffffffffff1673ffffffffffffffffffffffffffffffffffffffff16815260200190815260200160002060006101000a81548160ff0219169083151502179055508173ffffffffffffffffffffffffffffffffffffffff16611a4e612313565b73ffffffffffffffffffffffffffffffffffffffff167f17307eab39ab6107e8899845ad3d59bd9653f200f220920489ca2b5937696c3183604051611a93919061451e565b60405180910390a35050565b611aa7612313565b73ffffffffffffffffffffffffffffffffffffffff16611ac56116b4565b73ffffffffffffffffffffffffffffffffffffffff1614611b1b576040517f08c379a0000000000000000000000000000000000000000000000000000000008152600401611b12906147bf565b60405180910390fd5b6001601660016101000a81548160ff021916908315150217905550565b611b49611b43612313565b83612440565b611b88576040517f08c379a0000000000000000000000000000000000000000000000000000000008152600401611b7f9061483f565b60405180910390fd5b611b94848484846128e0565b50505050565b60128054611ba790614bb2565b80601f0160208091040260200160405190810160405280929190818152602001828054611bd390614bb2565b8015611c205780601f10611bf557610100808354040283529160200191611c20565b820191906000526020600020905b815481529060010190602001808311611c0357829003601f168201915b505050505081565b6060611c338261231b565b611c72576040517f08c379a0000000000000000000000000000000000000000000000000000000008152600401611c69906146ff565b60405180910390fd5b60001515601660019054906101000a900460ff1615151415611d205760178054611c9b90614bb2565b80601f0160208091040260200160405190810160405280929190818152602001828054611cc790614bb2565b8015611d145780601f10611ce957610100808354040283529160200191611d14565b820191906000526020600020905b815481529060010190602001808311611cf757829003601f168201915b50505050509050611dbe565b600060016064600b60149054906101000a900463ffffffff1663ffffffff1685611d4a91906149a9565b611d549190614c41565b611d5e91906149a9565b9050600060118054611d6f90614bb2565b905011611d8b5760405180602001604052806000815250611dba565b6011611d968261293c565b6012604051602001611daa9392919061440a565b6040516020818303038152906040525b9150505b919050565b60145481565b611dd1612313565b73ffffffffffffffffffffffffffffffffffffffff16611def6116b4565b73ffffffffffffffffffffffffffffffffffffffff1614611e45576040517f08c379a0000000000000000000000000000000000000000000000000000000008152600401611e3c906147bf565b60405180910390fd5b8060129080519060200190611e5b929190613585565b5050565b6000611e69612313565b73ffffffffffffffffffffffffffffffffffffffff16611e876116b4565b73ffffffffffffffffffffffffffffffffffffffff1614611edd576040517f08c379a0000000000000000000000000000000000000000000000000000000008152600401611ed4906147bf565b60405180910390fd5b6010547f000000000000000000000000000000000000000000000000000000000000000073ffffffffffffffffffffffffffffffffffffffff166370a08231306040518263ffffffff1660e01b8152600401611f399190614450565b60206040518083038186803b158015611f5157600080fd5b505afa158015611f65573d6000803e3d6000fd5b505050506040513d601f19601f82011682018060405250810190611f899190613a91565b1015611fca576040517f08c379a0000000000000000000000000000000000000000000000000000000008152600401611fc1906146bf565b60405180910390fd5b7f48ed86bcf5a9db215d430a3d797d5fd900be09379a002b6f37891bd2aacbe5cf60405160405180910390a1612004600e54601054612ae9565b905090565b60105481565b6000600660008473ffffffffffffffffffffffffffffffffffffffff1673ffffffffffffffffffffffffffffffffffffffff16815260200190815260200160002060008373ffffffffffffffffffffffffffffffffffffffff1673ffffffffffffffffffffffffffffffffffffffff16815260200190815260200160002060009054906101000a900460ff16905092915050565b6120ab612313565b73ffffffffffffffffffffffffffffffffffffffff166120c96116b4565b73ffffffffffffffffffffffffffffffffffffffff161461211f576040517f08c379a0000000000000000000000000000000000000000000000000000000008152600401612116906147bf565b60405180910390fd5b8060179080519060200190612135929190613585565b5050565b612141612313565b73ffffffffffffffffffffffffffffffffffffffff1661215f6116b4565b73ffffffffffffffffffffffffffffffffffffffff16146121b5576040517f08c379a00000000000000000000000000000000000000000000000000000000081526004016121ac906147bf565b60405180910390fd5b600073ffffffffffffffffffffffffffffffffffffffff168173ffffffffffffffffffffffffffffffffffffffff161415612225576040517f08c379a000000000000000000000000000000000000000000000000000000000815260040161221c9061463f565b60405180910390fd5b61222e8161277a565b50565b60007f80ac58cd000000000000000000000000000000000000000000000000000000007bffffffffffffffffffffffffffffffffffffffffffffffffffffffff1916827bffffffffffffffffffffffffffffffffffffffffffffffffffffffff191614806122fc57507f5b5e139f000000000000000000000000000000000000000000000000000000007bffffffffffffffffffffffffffffffffffffffffffffffffffffffff1916827bffffffffffffffffffffffffffffffffffffffffffffffffffffffff1916145b8061230c575061230b82612c48565b5b9050919050565b600033905090565b60008073ffffffffffffffffffffffffffffffffffffffff166003600084815260200190815260200160002060009054906101000a900473ffffffffffffffffffffffffffffffffffffffff1673ffffffffffffffffffffffffffffffffffffffff1614159050919050565b816005600083815260200190815260200160002060006101000a81548173ffffffffffffffffffffffffffffffffffffffff021916908373ffffffffffffffffffffffffffffffffffffffff160217905550808273ffffffffffffffffffffffffffffffffffffffff166123fa83611300565b73ffffffffffffffffffffffffffffffffffffffff167f8c5be1e5ebec7d5bd14f71427d1e84f3dd0314c0f7b2291e5b200ac8c7c3b92560405160405180910390a45050565b600061244b8261231b565b61248a576040517f08c379a0000000000000000000000000000000000000000000000000000000008152600401612481906146df565b60405180910390fd5b600061249583611300565b90508073ffffffffffffffffffffffffffffffffffffffff168473ffffffffffffffffffffffffffffffffffffffff16148061250457508373ffffffffffffffffffffffffffffffffffffffff166124ec84610ba8565b73ffffffffffffffffffffffffffffffffffffffff16145b806125155750612514818561200f565b5b91505092915050565b8273ffffffffffffffffffffffffffffffffffffffff1661253e82611300565b73ffffffffffffffffffffffffffffffffffffffff1614612594576040517f08c379a000000000000000000000000000000000000000000000000000000000815260040161258b906147df565b60405180910390fd5b600073ffffffffffffffffffffffffffffffffffffffff168273ffffffffffffffffffffffffffffffffffffffff161415612604576040517f08c379a00000000000000000000000000000000000000000000000000000000081526004016125fb9061467f565b60405180910390fd5b61260f838383612cb2565b61261a600082612387565b6001600460008573ffffffffffffffffffffffffffffffffffffffff1673ffffffffffffffffffffffffffffffffffffffff168152602001908152602001600020600082825461266a9190614a8a565b925050819055506001600460008473ffffffffffffffffffffffffffffffffffffffff1673ffffffffffffffffffffffffffffffffffffffff16815260200190815260200160002060008282546126c191906149a9565b92505081905550816003600083815260200190815260200160002060006101000a81548173ffffffffffffffffffffffffffffffffffffffff021916908373ffffffffffffffffffffffffffffffffffffffff160217905550808273ffffffffffffffffffffffffffffffffffffffff168473ffffffffffffffffffffffffffffffffffffffff167fddf252ad1be2c89b69c2b068fc378daa952ba7f163c4a11628f55a4df523b3ef60405160405180910390a4505050565b6000600b60009054906101000a900473ffffffffffffffffffffffffffffffffffffffff16905081600b60006101000a81548173ffffffffffffffffffffffffffffffffffffffff021916908373ffffffffffffffffffffffffffffffffffffffff1602179055508173ffffffffffffffffffffffffffffffffffffffff168173ffffffffffffffffffffffffffffffffffffffff167f8be0079c531659141344cd1fd0a4f28419497f9722a3daafe3b4186f6b6457e060405160405180910390a35050565b600160648261284f9190614c41565b61285991906149a9565b600b60146101000a81548163ffffffff021916908363ffffffff160217905550600b60149054906101000a900463ffffffff1663ffffffff167f2bd582160d7ca70bab6d6431d305b4e34063eab1c51b172dccba45d6f2ad52e160405160405180910390a25050565b6128dc828260405180602001604052806000815250612dc6565b5050565b6128eb84848461251e565b6128f784848484612e21565b612936576040517f08c379a000000000000000000000000000000000000000000000000000000000815260040161292d9061461f565b60405180910390fd5b50505050565b60606000821415612984576040518060400160405280600181526020017f30000000000000000000000000000000000000000000000000000000000000008152509050612ae4565b600082905060005b600082146129b657808061299f90614be4565b915050600a826129af91906149ff565b915061298c565b60008167ffffffffffffffff8111156129f8577f4e487b7100000000000000000000000000000000000000000000000000000000600052604160045260246000fd5b6040519080825280601f01601f191660200182016040528015612a2a5781602001600182028036833780820191505090505b5090505b60008514612add57600182612a439190614a8a565b9150600a85612a529190614c41565b6030612a5e91906149a9565b60f81b818381518110612a9a577f4e487b7100000000000000000000000000000000000000000000000000000000600052603260045260246000fd5b60200101907effffffffffffffffffffffffffffffffffffffffffffffffffffffffffffff1916908160001a905350600a85612ad691906149ff565b9450612a2e565b8093505050505b919050565b60007f000000000000000000000000000000000000000000000000000000000000000073ffffffffffffffffffffffffffffffffffffffff16634000aea07f000000000000000000000000000000000000000000000000000000000000000084866000604051602001612b5d929190614554565b6040516020818303038152906040526040518463ffffffff1660e01b8152600401612b8a939291906144e0565b602060405180830381600087803b158015612ba457600080fd5b505af1158015612bb8573d6000803e3d6000fd5b505050506040513d601f19601f82011682018060405250810190612bdc9190613970565b506000612bfe8460003060008089815260200190815260200160002054612fb8565b9050600160008086815260200190815260200160002054612c1f91906149a9565b60008086815260200190815260200160002081905550612c3f8482612ff4565b91505092915050565b60007f01ffc9a7000000000000000000000000000000000000000000000000000000007bffffffffffffffffffffffffffffffffffffffffffffffffffffffff1916827bffffffffffffffffffffffffffffffffffffffffffffffffffffffff1916149050919050565b612cbd838383613027565b600073ffffffffffffffffffffffffffffffffffffffff168373ffffffffffffffffffffffffffffffffffffffff161415612d0057612cfb8161302c565b612d3f565b8173ffffffffffffffffffffffffffffffffffffffff168373ffffffffffffffffffffffffffffffffffffffff1614612d3e57612d3d8382613075565b5b5b600073ffffffffffffffffffffffffffffffffffffffff168273ffffffffffffffffffffffffffffffffffffffff161415612d8257612d7d816131e2565b612dc1565b8273ffffffffffffffffffffffffffffffffffffffff168273ffffffffffffffffffffffffffffffffffffffff1614612dc057612dbf8282613325565b5b5b505050565b612dd083836133a4565b612ddd6000848484612e21565b612e1c576040517f08c379a0000000000000000000000000000000000000000000000000000000008152600401612e139061461f565b60405180910390fd5b505050565b6000612e428473ffffffffffffffffffffffffffffffffffffffff16613572565b15612fab578373ffffffffffffffffffffffffffffffffffffffff1663150b7a02612e6b612313565b8786866040518563ffffffff1660e01b8152600401612e8d949392919061446b565b602060405180830381600087803b158015612ea757600080fd5b505af1925050508015612ed857506040513d601f19601f82011682018060405250810190612ed591906139fe565b60015b612f5b573d8060008114612f08576040519150601f19603f3d011682016040523d82523d6000602084013e612f0d565b606091505b50600081511415612f53576040517f08c379a0000000000000000000000000000000000000000000000000000000008152600401612f4a9061461f565b60405180910390fd5b805181602001fd5b63150b7a0260e01b7bffffffffffffffffffffffffffffffffffffffffffffffffffffffff1916817bffffffffffffffffffffffffffffffffffffffffffffffffffffffff191614915050612fb0565b600190505b949350505050565b600084848484604051602001612fd1949392919061457d565b6040516020818303038152906040528051906020012060001c9050949350505050565b600082826040516020016130099291906143de565b60405160208183030381529060405280519060200120905092915050565b505050565b600980549050600a600083815260200190815260200160002081905550600981908060018154018082558091505060019003906000526020600020016000909190919091505550565b60006001613082846113b2565b61308c9190614a8a565b9050600060086000848152602001908152602001600020549050818114613171576000600760008673ffffffffffffffffffffffffffffffffffffffff1673ffffffffffffffffffffffffffffffffffffffff168152602001908152602001600020600084815260200190815260200160002054905080600760008773ffffffffffffffffffffffffffffffffffffffff1673ffffffffffffffffffffffffffffffffffffffff168152602001908152602001600020600084815260200190815260200160002081905550816008600083815260200190815260200160002081905550505b6008600084815260200190815260200160002060009055600760008573ffffffffffffffffffffffffffffffffffffffff1673ffffffffffffffffffffffffffffffffffffffff16815260200190815260200160002060008381526020019081526020016000206000905550505050565b600060016009805490506131f69190614a8a565b90506000600a600084815260200190815260200160002054905060006009838154811061324c577f4e487b7100000000000000000000000000000000000000000000000000000000600052603260045260246000fd5b906000526020600020015490508060098381548110613294577f4e487b7100000000000000000000000000000000000000000000000000000000600052603260045260246000fd5b906000526020600020018190555081600a600083815260200190815260200160002081905550600a6000858152602001908152602001600020600090556009805480613309577f4e487b7100000000000000000000000000000000000000000000000000000000600052603160045260246000fd5b6001900381819060005260206000200160009055905550505050565b6000613330836113b2565b905081600760008573ffffffffffffffffffffffffffffffffffffffff1673ffffffffffffffffffffffffffffffffffffffff168152602001908152602001600020600083815260200190815260200160002081905550806008600084815260200190815260200160002081905550505050565b600073ffffffffffffffffffffffffffffffffffffffff168273ffffffffffffffffffffffffffffffffffffffff161415613414576040517f08c379a000000000000000000000000000000000000000000000000000000000815260040161340b9061477f565b60405180910390fd5b61341d8161231b565b1561345d576040517f08c379a00000000000000000000000000000000000000000000000000000000081526004016134549061465f565b60405180910390fd5b61346960008383612cb2565b6001600460008473ffffffffffffffffffffffffffffffffffffffff1673ffffffffffffffffffffffffffffffffffffffff16815260200190815260200160002060008282546134b991906149a9565b92505081905550816003600083815260200190815260200160002060006101000a81548173ffffffffffffffffffffffffffffffffffffffff021916908373ffffffffffffffffffffffffffffffffffffffff160217905550808273ffffffffffffffffffffffffffffffffffffffff16600073ffffffffffffffffffffffffffffffffffffffff167fddf252ad1be2c89b69c2b068fc378daa952ba7f163c4a11628f55a4df523b3ef60405160405180910390a45050565b600080823b905060008111915050919050565b82805461359190614bb2565b90600052602060002090601f0160209004810192826135b357600085556135fa565b82601f106135cc57805160ff19168380011785556135fa565b828001600101855582156135fa579182015b828111156135f95782518255916020019190600101906135de565b5b509050613607919061360b565b5090565b5b8082111561362457600081600090555060010161360c565b5090565b600061363b613636846148e6565b6148b5565b90508281526020810184848401111561365357600080fd5b61365e848285614b70565b509392505050565b600061367961367484614916565b6148b5565b90508281526020810184848401111561369157600080fd5b61369c848285614b70565b509392505050565b6000813590506136b381614d3f565b92915050565b6000813590506136c881614d56565b92915050565b6000815190506136dd81614d56565b92915050565b6000813590506136f281614d6d565b92915050565b60008135905061370781614d84565b92915050565b60008151905061371c81614d84565b92915050565b600082601f83011261373357600080fd5b8135613743848260208601613628565b91505092915050565b600082601f83011261375d57600080fd5b813561376d848260208601613666565b91505092915050565b60008135905061378581614d9b565b92915050565b60008151905061379a81614d9b565b92915050565b6000602082840312156137b257600080fd5b60006137c0848285016136a4565b91505092915050565b600080604083850312156137dc57600080fd5b60006137ea858286016136a4565b92505060206137fb858286016136a4565b9150509250929050565b60008060006060848603121561381a57600080fd5b6000613828868287016136a4565b9350506020613839868287016136a4565b925050604061384a86828701613776565b9150509250925092565b6000806000806080858703121561386a57600080fd5b6000613878878288016136a4565b9450506020613889878288016136a4565b935050604061389a87828801613776565b925050606085013567ffffffffffffffff8111156138b757600080fd5b6138c387828801613722565b91505092959194509250565b600080604083850312156138e257600080fd5b60006138f0858286016136a4565b9250506020613901858286016136b9565b9150509250929050565b6000806040838503121561391e57600080fd5b600061392c858286016136a4565b925050602061393d85828601613776565b9150509250929050565b60006020828403121561395957600080fd5b6000613967848285016136b9565b91505092915050565b60006020828403121561398257600080fd5b6000613990848285016136ce565b91505092915050565b600080604083850312156139ac57600080fd5b60006139ba858286016136e3565b92505060206139cb85828601613776565b9150509250929050565b6000602082840312156139e757600080fd5b60006139f5848285016136f8565b91505092915050565b600060208284031215613a1057600080fd5b6000613a1e8482850161370d565b91505092915050565b600060208284031215613a3957600080fd5b600082013567ffffffffffffffff811115613a5357600080fd5b613a5f8482850161374c565b91505092915050565b600060208284031215613a7a57600080fd5b6000613a8884828501613776565b91505092915050565b600060208284031215613aa357600080fd5b6000613ab18482850161378b565b91505092915050565b613ac381614abe565b82525050565b613ad281614ad0565b82525050565b613ae181614adc565b82525050565b613af8613af382614adc565b614c2d565b82525050565b6000613b098261495b565b613b138185614971565b9350613b23818560208601614b7f565b613b2c81614d2e565b840191505092915050565b613b4081614b4c565b82525050565b6000613b5182614966565b613b5b818561498d565b9350613b6b818560208601614b7f565b613b7481614d2e565b840191505092915050565b6000613b8a82614966565b613b94818561499e565b9350613ba4818560208601614b7f565b80840191505092915050565b60008154613bbd81614bb2565b613bc7818661499e565b94506001821660008114613be25760018114613bf357613c26565b60ff19831686528186019350613c26565b613bfc85614946565b60005b83811015613c1e57815481890152600182019150602081019050613bff565b838801955050505b50505092915050565b6000613c3c602b8361498d565b91507f455243373231456e756d657261626c653a206f776e657220696e646578206f7560008301527f74206f6620626f756e64730000000000000000000000000000000000000000006020830152604082019050919050565b6000613ca260328361498d565b91507f4552433732313a207472616e7366657220746f206e6f6e20455243373231526560008301527f63656976657220696d706c656d656e74657200000000000000000000000000006020830152604082019050919050565b6000613d0860268361498d565b91507f4f776e61626c653a206e6577206f776e657220697320746865207a65726f206160008301527f64647265737300000000000000000000000000000000000000000000000000006020830152604082019050919050565b6000613d6e601c8361498d565b91507f4552433732313a20746f6b656e20616c7265616479206d696e746564000000006000830152602082019050919050565b6000613dae60248361498d565b91507f4552433732313a207472616e7366657220746f20746865207a65726f2061646460008301527f72657373000000000000000000000000000000000000000000000000000000006020830152604082019050919050565b6000613e1460198361498d565b91507f4552433732313a20617070726f766520746f2063616c6c6572000000000000006000830152602082019050919050565b6000613e54602b8361498d565b91507f4e6f7420656e6f756768204c494e4b202d2066696c6c20636f6e74726163742060008301527f77697468206661756365740000000000000000000000000000000000000000006020830152604082019050919050565b6000613eba602c8361498d565b91507f4552433732313a206f70657261746f7220717565727920666f72206e6f6e657860008301527f697374656e7420746f6b656e00000000000000000000000000000000000000006020830152604082019050919050565b6000613f2060458361498d565b91507f4552433732314d657461646174613a2055524920717565727920666f72206e6f60008301527f6e6578697374656e7420746f6b656e202849742773206e6f74206d696e74656460208301527f20796574290000000000000000000000000000000000000000000000000000006040830152606082019050919050565b6000613fac60388361498d565b91507f4552433732313a20617070726f76652063616c6c6572206973206e6f74206f7760008301527f6e6572206e6f7220617070726f76656420666f7220616c6c00000000000000006020830152604082019050919050565b6000614012602a8361498d565b91507f4552433732313a2062616c616e636520717565727920666f7220746865207a6560008301527f726f2061646472657373000000000000000000000000000000000000000000006020830152604082019050919050565b600061407860298361498d565b91507f4552433732313a206f776e657220717565727920666f72206e6f6e657869737460008301527f656e7420746f6b656e00000000000000000000000000000000000000000000006020830152604082019050919050565b60006140de60208361498d565b91507f4552433732313a206d696e7420746f20746865207a65726f20616464726573736000830152602082019050919050565b600061411e602c8361498d565b91507f4552433732313a20617070726f76656420717565727920666f72206e6f6e657860008301527f697374656e7420746f6b656e00000000000000000000000000000000000000006020830152604082019050919050565b600061418460208361498d565b91507f4f776e61626c653a2063616c6c6572206973206e6f7420746865206f776e65726000830152602082019050919050565b60006141c460298361498d565b91507f4552433732313a207472616e73666572206f6620746f6b656e2074686174206960008301527f73206e6f74206f776e00000000000000000000000000000000000000000000006020830152604082019050919050565b600061422a601f8361498d565b91507f4f6e6c7920565246436f6f7264696e61746f722063616e2066756c66696c6c006000830152602082019050919050565b600061426a60218361498d565b91507f4552433732313a20617070726f76616c20746f2063757272656e74206f776e6560008301527f72000000000000000000000000000000000000000000000000000000000000006020830152604082019050919050565b60006142d0600083614982565b9150600082019050919050565b60006142ea60318361498d565b91507f4552433732313a207472616e736665722063616c6c6572206973206e6f74206f60008301527f776e6572206e6f7220617070726f7665640000000000000000000000000000006020830152604082019050919050565b6000614350602c8361498d565b91507f455243373231456e756d657261626c653a20676c6f62616c20696e646578206f60008301527f7574206f6620626f756e647300000000000000000000000000000000000000006020830152604082019050919050565b6143b281614b32565b82525050565b6143c96143c482614b32565b614c37565b82525050565b6143d881614b3c565b82525050565b60006143ea8285613ae7565b6020820191506143fa82846143b8565b6020820191508190509392505050565b60006144168286613bb0565b91506144228285613b7f565b915061442e8284613bb0565b9150819050949350505050565b6000614446826142c3565b9150819050919050565b60006020820190506144656000830184613aba565b92915050565b60006080820190506144806000830187613aba565b61448d6020830186613aba565b61449a60408301856143a9565b81810360608301526144ac8184613afe565b905095945050505050565b60006040820190506144cc6000830185613aba565b6144d960208301846143a9565b9392505050565b60006060820190506144f56000830186613aba565b61450260208301856143a9565b81810360408301526145148184613afe565b9050949350505050565b60006020820190506145336000830184613ac9565b92915050565b600060208201905061454e6000830184613ad8565b92915050565b60006040820190506145696000830185613ad8565b61457660208301846143a9565b9392505050565b60006080820190506145926000830187613ad8565b61459f60208301866143a9565b6145ac6040830185613aba565b6145b960608301846143a9565b95945050505050565b60006020820190506145d76000830184613b37565b92915050565b600060208201905081810360008301526145f78184613b46565b905092915050565b6000602082019050818103600083015261461881613c2f565b9050919050565b6000602082019050818103600083015261463881613c95565b9050919050565b6000602082019050818103600083015261465881613cfb565b9050919050565b6000602082019050818103600083015261467881613d61565b9050919050565b6000602082019050818103600083015261469881613da1565b9050919050565b600060208201905081810360008301526146b881613e07565b9050919050565b600060208201905081810360008301526146d881613e47565b9050919050565b600060208201905081810360008301526146f881613ead565b9050919050565b6000602082019050818103600083015261471881613f13565b9050919050565b6000602082019050818103600083015261473881613f9f565b9050919050565b6000602082019050818103600083015261475881614005565b9050919050565b600060208201905081810360008301526147788161406b565b9050919050565b60006020820190508181036000830152614798816140d1565b9050919050565b600060208201905081810360008301526147b881614111565b9050919050565b600060208201905081810360008301526147d881614177565b9050919050565b600060208201905081810360008301526147f8816141b7565b9050919050565b600060208201905081810360008301526148188161421d565b9050919050565b600060208201905081810360008301526148388161425d565b9050919050565b60006020820190508181036000830152614858816142dd565b9050919050565b6000602082019050818103600083015261487881614343565b9050919050565b600060208201905061489460008301846143a9565b92915050565b60006020820190506148af60008301846143cf565b92915050565b6000604051905081810181811067ffffffffffffffff821117156148dc576148db614cff565b5b8060405250919050565b600067ffffffffffffffff82111561490157614900614cff565b5b601f19601f8301169050602081019050919050565b600067ffffffffffffffff82111561493157614930614cff565b5b601f19601f8301169050602081019050919050565b60008190508160005260206000209050919050565b600081519050919050565b600081519050919050565b600082825260208201905092915050565b600081905092915050565b600082825260208201905092915050565b600081905092915050565b60006149b482614b32565b91506149bf83614b32565b9250827fffffffffffffffffffffffffffffffffffffffffffffffffffffffffffffffff038211156149f4576149f3614c72565b5b828201905092915050565b6000614a0a82614b32565b9150614a1583614b32565b925082614a2557614a24614ca1565b5b828204905092915050565b6000614a3b82614b32565b9150614a4683614b32565b9250817fffffffffffffffffffffffffffffffffffffffffffffffffffffffffffffffff0483118215151615614a7f57614a7e614c72565b5b828202905092915050565b6000614a9582614b32565b9150614aa083614b32565b925082821015614ab357614ab2614c72565b5b828203905092915050565b6000614ac982614b12565b9050919050565b60008115159050919050565b6000819050919050565b60007fffffffff0000000000000000000000000000000000000000000000000000000082169050919050565b600073ffffffffffffffffffffffffffffffffffffffff82169050919050565b6000819050919050565b600063ffffffff82169050919050565b6000614b5782614b5e565b9050919050565b6000614b6982614b12565b9050919050565b82818337600083830152505050565b60005b83811015614b9d578082015181840152602081019050614b82565b83811115614bac576000848401525b50505050565b60006002820490506001821680614bca57607f821691505b60208210811415614bde57614bdd614cd0565b5b50919050565b6000614bef82614b32565b91507fffffffffffffffffffffffffffffffffffffffffffffffffffffffffffffffff821415614c2257614c21614c72565b5b600182019050919050565b6000819050919050565b6000819050919050565b6000614c4c82614b32565b9150614c5783614b32565b925082614c6757614c66614ca1565b5b828206905092915050565b7f4e487b7100000000000000000000000000000000000000000000000000000000600052601160045260246000fd5b7f4e487b7100000000000000000000000000000000000000000000000000000000600052601260045260246000fd5b7f4e487b7100000000000000000000000000000000000000000000000000000000600052602260045260246000fd5b7f4e487b7100000000000000000000000000000000000000000000000000000000600052604160045260246000fd5b6000601f19601f8301169050919050565b614d4881614abe565b8114614d5357600080fd5b50565b614d5f81614ad0565b8114614d6a57600080fd5b50565b614d7681614adc565b8114614d8157600080fd5b50565b614d8d81614ae6565b8114614d9857600080fd5b50565b614da481614b32565b8114614daf57600080fd5b5056fea2646970667358221220977489515df587f59ee2c83e9ec9ac7271bf81595460ac525fa489109db32d7964736f6c63430008000033",
  "linkReferences": {},
  "deployedLinkReferences": {}
}